:040000000C943D001F
:100004000C9400000C9400000C9400000C9400006C
:100014000C9400000C9400000C9400000C9400005C
:100024000C9400000C9400000C9400000C9400004C
:100034000C9400000C9400000C9400000C9400003C
:100044000C9400000C9463000C9400000C94830046
:100054000C949C000C9400000C949B000C940000E5
:100064000C9400001027E80364000A00010000104B
:10007400000110000100F894EE27EFBBF1E0F5BF9A
:10008400E5BFF8E1A895A4B7A77FA4BFF0936000EB
:10009400E09360008DE0A2E0BB27ED938A95E9F739
:1000A40080E098E0A0E0B1E0ED930197E9F7E0E0AB
:1000B400EEBBEFEFEDBFE8E0EEBFC0E0D3E00C94A1
:1000C400C800EA93FA93EFB7EA931A930A9310914C
:1000D400C0000091C600E12FEC7181F4E42D43943B
:1000E400F0E0E050FD4F0083E8E0E41509F4442417
:1000F4006394E8E0E61511F46624F09A09911991E5
:1001040013C0EA93FA93EFB7EA93772069F07A94ED
:10011400E82D8394F0E0E85FFC4FE081E093C600B3
:10012400E8E0E81509F48824E991EFBFF991E99131
:10013400189518958A93AA93BA93EA93EFB7EA931A
:10014400A0911103B0E0A05FBC4FE0917900EC9363
:10015400A0911103AF5FA0931103A13018F0E0E068
:10016400E0931103E0911103E05EE0937C0083E4EB
:100174008A95F1F7E0917A00E064E0937A00E991DE
:10018400EFBFE991B991A99189911895E0E8E093BD
:100194006100E0E0E0936100E5B9E4B9E8B9E7B9EA
:1001A400EBB9EAB9E4BDE5BDE6BDE7BDE8BDE09362
:1001B4008000E0938100E0938500E0938400E09365
:1001C4008700E0938600E0938900E0938800E09341
:1001D4008B00E0938A00E093B600E093B000E093D4
:1001E400B100E093B200E093B300E093B400E09375
:1001F4006900EDBBE0936800E0936E00E0936F004C
:10020400E0937000E093C000E8EDE093C100E6E005
:10021400E093C200E0E0E093C500E1E8E093C400AD
:10022400ECE4E0BFE0E0E0937B00E3E0E0937F00F8
:10023400EFE3E0937E00E0E2E0937C00EDECE093FA
:100244007A00E0E0ECBDE093BC007894FFCFFFCFF0
:00000001FF
